{
  "contractName": "kittyContract",
  "abi": [
    {
      "anonymous": false,
      "inputs": [
        {
          "indexed": true,
          "internalType": "address",
          "name": "owner",
          "type": "address"
        },
        {
          "indexed": true,
          "internalType": "address",
          "name": "approved",
          "type": "address"
        },
        {
          "indexed": true,
          "internalType": "uint256",
          "name": "tokenId",
          "type": "uint256"
        }
      ],
      "name": "Approval",
      "type": "event"
    },
    {
      "anonymous": false,
      "inputs": [
        {
          "indexed": true,
          "internalType": "address",
          "name": "owner",
          "type": "address"
        },
        {
          "indexed": true,
          "internalType": "address",
          "name": "operator",
          "type": "address"
        },
        {
          "indexed": false,
          "internalType": "bool",
          "name": "approved",
          "type": "bool"
        }
      ],
      "name": "ApprovalForAll",
      "type": "event"
    },
    {
      "anonymous": false,
      "inputs": [
        {
          "indexed": false,
          "internalType": "address",
          "name": "owner",
          "type": "address"
        },
        {
          "indexed": false,
          "internalType": "uint256",
          "name": "kittenId",
          "type": "uint256"
        },
        {
          "indexed": false,
          "internalType": "uint256",
          "name": "mumId",
          "type": "uint256"
        },
        {
          "indexed": false,
          "internalType": "uint256",
          "name": "dadId",
          "type": "uint256"
        },
        {
          "indexed": false,
          "internalType": "uint256",
          "name": "genes",
          "type": "uint256"
        }
      ],
      "name": "Birth",
      "type": "event"
    },
    {
      "anonymous": false,
      "inputs": [
        {
          "indexed": true,
          "internalType": "address",
          "name": "from",
          "type": "address"
        },
        {
          "indexed": true,
          "internalType": "address",
          "name": "to",
          "type": "address"
        },
        {
          "indexed": true,
          "internalType": "uint256",
          "name": "tokenId",
          "type": "uint256"
        }
      ],
      "name": "Transfer",
      "type": "event"
    },
    {
      "inputs": [],
      "name": "CREATION_LIMIT_GEN0",
      "outputs": [
        {
          "internalType": "uint256",
          "name": "",
          "type": "uint256"
        }
      ],
      "stateMutability": "view",
      "type": "function",
      "constant": true
    },
    {
      "inputs": [],
      "name": "gen0Counter",
      "outputs": [
        {
          "internalType": "uint256",
          "name": "",
          "type": "uint256"
        }
      ],
      "stateMutability": "view",
      "type": "function",
      "constant": true
    },
    {
      "inputs": [
        {
          "internalType": "uint256",
          "name": "",
          "type": "uint256"
        }
      ],
      "name": "kittyIndexToApproved",
      "outputs": [
        {
          "internalType": "address",
          "name": "",
          "type": "address"
        }
      ],
      "stateMutability": "view",
      "type": "function",
      "constant": true
    },
    {
      "inputs": [
        {
          "internalType": "uint256",
          "name": "",
          "type": "uint256"
        }
      ],
      "name": "kittyTokenOwner",
      "outputs": [
        {
          "internalType": "address",
          "name": "",
          "type": "address"
        }
      ],
      "stateMutability": "view",
      "type": "function",
      "constant": true
    },
    {
      "inputs": [],
      "name": "tokenName",
      "outputs": [
        {
          "internalType": "string",
          "name": "",
          "type": "string"
        }
      ],
      "stateMutability": "view",
      "type": "function",
      "constant": true
    },
    {
      "inputs": [],
      "name": "tokenSymbol",
      "outputs": [
        {
          "internalType": "string",
          "name": "",
          "type": "string"
        }
      ],
      "stateMutability": "view",
      "type": "function",
      "constant": true
    },
    {
      "inputs": [
        {
          "internalType": "uint256",
          "name": "_dadId",
          "type": "uint256"
        },
        {
          "internalType": "uint256",
          "name": "_mumId",
          "type": "uint256"
        }
      ],
      "name": "breed",
      "outputs": [
        {
          "internalType": "uint256",
          "name": "",
          "type": "uint256"
        }
      ],
      "stateMutability": "nonpayable",
      "type": "function"
    },
    {
      "inputs": [
        {
          "internalType": "bytes4",
          "name": "_interfaceId",
          "type": "bytes4"
        }
      ],
      "name": "supportInterface",
      "outputs": [
        {
          "internalType": "bool",
          "name": "",
          "type": "bool"
        }
      ],
      "stateMutability": "view",
      "type": "function",
      "constant": true
    },
    {
      "inputs": [
        {
          "internalType": "address",
          "name": "_from",
          "type": "address"
        },
        {
          "internalType": "address",
          "name": "_to",
          "type": "address"
        },
        {
          "internalType": "uint256",
          "name": "_tokenId",
          "type": "uint256"
        }
      ],
      "name": "safeTransferFrom",
      "outputs": [],
      "stateMutability": "nonpayable",
      "type": "function"
    },
    {
      "inputs": [
        {
          "internalType": "address",
          "name": "_from",
          "type": "address"
        },
        {
          "internalType": "address",
          "name": "_to",
          "type": "address"
        },
        {
          "internalType": "uint256",
          "name": "_tokenId",
          "type": "uint256"
        },
        {
          "internalType": "bytes",
          "name": "_data",
          "type": "bytes"
        }
      ],
      "name": "safeTransferFrom",
      "outputs": [],
      "stateMutability": "nonpayable",
      "type": "function"
    },
    {
      "inputs": [
        {
          "internalType": "address",
          "name": "_to",
          "type": "address"
        },
        {
          "internalType": "uint256",
          "name": "_tokenId",
          "type": "uint256"
        }
      ],
      "name": "approve",
      "outputs": [],
      "stateMutability": "nonpayable",
      "type": "function"
    },
    {
      "inputs": [
        {
          "internalType": "address",
          "name": "_operator",
          "type": "address"
        },
        {
          "internalType": "bool",
          "name": "_approved",
          "type": "bool"
        }
      ],
      "name": "setApprovalForAll",
      "outputs": [],
      "stateMutability": "nonpayable",
      "type": "function"
    },
    {
      "inputs": [
        {
          "internalType": "uint256",
          "name": "_tokenId",
          "type": "uint256"
        }
      ],
      "name": "getApproved",
      "outputs": [
        {
          "internalType": "address",
          "name": "",
          "type": "address"
        }
      ],
      "stateMutability": "view",
      "type": "function",
      "constant": true
    },
    {
      "inputs": [
        {
          "internalType": "address",
          "name": "_owner",
          "type": "address"
        },
        {
          "internalType": "address",
          "name": "_operator",
          "type": "address"
        }
      ],
      "name": "isApprovedForAll",
      "outputs": [
        {
          "internalType": "bool",
          "name": "",
          "type": "bool"
        }
      ],
      "stateMutability": "view",
      "type": "function",
      "constant": true
    },
    {
      "inputs": [
        {
          "internalType": "address",
          "name": "_from",
          "type": "address"
        },
        {
          "internalType": "address",
          "name": "_to",
          "type": "address"
        },
        {
          "internalType": "uint256",
          "name": "_tokenId",
          "type": "uint256"
        }
      ],
      "name": "transferFrom",
      "outputs": [],
      "stateMutability": "nonpayable",
      "type": "function"
    },
    {
      "inputs": [
        {
          "internalType": "uint256",
          "name": "_id",
          "type": "uint256"
        }
      ],
      "name": "getKitty",
      "outputs": [
        {
          "internalType": "uint256",
          "name": "genes",
          "type": "uint256"
        },
        {
          "internalType": "uint256",
          "name": "birthTime",
          "type": "uint256"
        },
        {
          "internalType": "uint256",
          "name": "mumId",
          "type": "uint256"
        },
        {
          "internalType": "uint256",
          "name": "dadId",
          "type": "uint256"
        },
        {
          "internalType": "uint256",
          "name": "generation",
          "type": "uint256"
        }
      ],
      "stateMutability": "view",
      "type": "function",
      "constant": true
    },
    {
      "inputs": [
        {
          "internalType": "uint256",
          "name": "_genes",
          "type": "uint256"
        }
      ],
      "name": "createKittyGen0",
      "outputs": [
        {
          "internalType": "uint256",
          "name": "",
          "type": "uint256"
        }
      ],
      "stateMutability": "nonpayable",
      "type": "function"
    },
    {
      "inputs": [
        {
          "internalType": "address",
          "name": "owner",
          "type": "address"
        }
      ],
      "name": "balanceOf",
      "outputs": [
        {
          "internalType": "uint256",
          "name": "",
          "type": "uint256"
        }
      ],
      "stateMutability": "view",
      "type": "function",
      "constant": true
    },
    {
      "inputs": [],
      "name": "totalSupply",
      "outputs": [
        {
          "internalType": "uint256",
          "name": "",
          "type": "uint256"
        }
      ],
      "stateMutability": "view",
      "type": "function",
      "constant": true
    },
    {
      "inputs": [],
      "name": "name",
      "outputs": [
        {
          "internalType": "string",
          "name": "",
          "type": "string"
        }
      ],
      "stateMutability": "pure",
      "type": "function",
      "constant": true
    },
    {
      "inputs": [],
      "name": "symbol",
      "outputs": [
        {
          "internalType": "string",
          "name": "",
          "type": "string"
        }
      ],
      "stateMutability": "pure",
      "type": "function",
      "constant": true
    },
    {
      "inputs": [
        {
          "internalType": "uint256",
          "name": "tokenId",
          "type": "uint256"
        }
      ],
      "name": "ownerOf",
      "outputs": [
        {
          "internalType": "address",
          "name": "",
          "type": "address"
        }
      ],
      "stateMutability": "view",
      "type": "function",
      "constant": true
    },
    {
      "inputs": [
        {
          "internalType": "address",
          "name": "to",
          "type": "address"
        },
        {
          "internalType": "uint256",
          "name": "tokenId",
          "type": "uint256"
        }
      ],
      "name": "transfer",
      "outputs": [],
      "stateMutability": "nonpayable",
      "type": "function"
    }
  ],
  "bytecode": "0x608060405234801561001057600080fd5b50336000806101000a81548173ffffffffffffffffffffffffffffffffffffffff021916908373ffffffffffffffffffffffffffffffffffffffff1602179055506120f3806100606000396000f3fe608060405234801561001057600080fd5b506004361061014d5760003560e01c806375e79be6116100c3578063b88d4fde1161007c578063b88d4fde146103b2578063d5a776ca146103ce578063d9ecad7b146103fe578063e985e9c51461042e578063e98b7f4d1461045e578063ef5e94aa146104925761014d565b806375e79be6146102f05780637b61c3201461032057806395d89b411461033e578063a22cb4651461035c578063a9059cbb14610378578063b4834330146103945761014d565b806323b872dd1161011557806323b872dd1461020a57806342842e0e14610226578063481af3d3146102425780636352211e146102725780636c02a931146102a257806370a08231146102c05761014d565b806306fdde0314610152578063081812fc14610170578063095ea7b3146101a057806318160ddd146101bc5780631fb7afb7146101da575b600080fd5b61015a6104b0565b6040516101679190611642565b60405180910390f35b61018a600480360381019061018591906116ae565b6104ed565b604051610197919061171c565b60405180910390f35b6101ba60048036038101906101b59190611763565b61053b565b005b6101c46105b7565b6040516101d191906117b2565b60405180910390f35b6101f460048036038101906101ef91906116ae565b6105c4565b604051610201919061171c565b60405180910390f35b610224600480360381019061021f91906117cd565b6105f7565b005b610240600480360381019061023b91906117cd565b6106be565b005b61025c600480360381019061025791906116ae565b6106de565b604051610269919061171c565b60405180910390f35b61028c600480360381019061028791906116ae565b610711565b604051610299919061171c565b60405180910390f35b6102aa6107b9565b6040516102b79190611642565b60405180910390f35b6102da60048036038101906102d59190611820565b6107f2565b6040516102e791906117b2565b60405180910390f35b61030a600480360381019061030591906118a5565b61083b565b60405161031791906118ed565b60405180910390f35b6103286108db565b6040516103359190611642565b60405180910390f35b610346610914565b6040516103539190611642565b60405180910390f35b61037660048036038101906103719190611934565b610951565b005b610392600480360381019061038d9190611763565b610a86565b005b61039c610b06565b6040516103a991906117b2565b60405180910390f35b6103cc60048036038101906103c79190611aa9565b610b0b565b005b6103e860048036038101906103e391906116ae565b610b32565b6040516103f591906117b2565b60405180910390f35b61041860048036038101906104139190611b2c565b610c36565b60405161042591906117b2565b60405180910390f35b61044860048036038101906104439190611b6c565b610d81565b60405161045591906118ed565b60405180910390f35b610478600480360381019061047391906116ae565b610e15565b604051610489959493929190611bac565b60405180910390f35b61049a610ecb565b6040516104a791906117b2565b60405180910390f35b60606040518060400160405280600c81526020017f436f6465644b6974746965730000000000000000000000000000000000000000815250905090565b6000600180549050821061050057600080fd5b6004600083815260200190815260200160002060009054906101000a900473ffffffffffffffffffffffffffffffffffffffff169050919050565b6105453382610ed1565b61054e57600080fd5b6105588183610f3d565b808273ffffffffffffffffffffffffffffffffffffffff163373ffffffffffffffffffffffffffffffffffffffff167f8c5be1e5ebec7d5bd14f71427d1e84f3dd0314c0f7b2291e5b200ac8c7c3b92560405160405180910390a45050565b6000600180549050905090565b60036020528060005260406000206000915054906101000a900473ffffffffffffffffffffffffffffffffffffffff1681565b600073ffffffffffffffffffffffffffffffffffffffff168273ffffffffffffffffffffffffffffffffffffffff160361063057600080fd5b8273ffffffffffffffffffffffffffffffffffffffff163373ffffffffffffffffffffffffffffffffffffffff161480610670575061066f3382610f93565b5b8061068157506106808333610d81565b5b61068a57600080fd5b6106948382610ed1565b61069d57600080fd5b60018054905081106106ae57600080fd5b6106b9838383610fff565b505050565b6106d983838360405180602001604052806000815250610b0b565b505050565b60046020528060005260406000206000915054906101000a900473ffffffffffffffffffffffffffffffffffffffff1681565b60008073ffffffffffffffffffffffffffffffffffffffff166003600084815260200190815260200160002060009054906101000a900473ffffffffffffffffffffffffffffffffffffffff1673ffffffffffffffffffffffffffffffffffffffff160361077e57600080fd5b6003600083815260200190815260200160002060009054906101000a900473ffffffffffffffffffffffffffffffffffffffff169050919050565b6040518060400160405280600c81526020017f436f6465644b697474696573000000000000000000000000000000000000000081525081565b6000600260008373ffffffffffffffffffffffffffffffffffffffff1673ffffffffffffffffffffffffffffffffffffffff168152602001908152602001600020549050919050565b60006380ac58cd60e01b7bffffffffffffffffffffffffffffffffffffffffffffffffffffffff1916827bffffffffffffffffffffffffffffffffffffffffffffffffffffffff191614806108d457506301ffc9a760e01b7bffffffffffffffffffffffffffffffffffffffffffffffffffffffff1916827bffffffffffffffffffffffffffffffffffffffffffffffffffffffff1916145b9050919050565b6040518060400160405280600281526020017f434b00000000000000000000000000000000000000000000000000000000000081525081565b60606040518060400160405280600281526020017f434b000000000000000000000000000000000000000000000000000000000000815250905090565b3373ffffffffffffffffffffffffffffffffffffffff168273ffffffffffffffffffffffffffffffffffffffff160361098957600080fd5b80600560003373ffffffffffffffffffffffffffffffffffffffff1673ffffffffffffffffffffffffffffffffffffffff16815260200190815260200160002060008473ffffffffffffffffffffffffffffffffffffffff1673ffffffffffffffffffffffffffffffffffffffff16815260200190815260200160002060006101000a81548160ff0219169083151502179055508173ffffffffffffffffffffffffffffffffffffffff163373ffffffffffffffffffffffffffffffffffffffff167f17307eab39ab6107e8899845ad3d59bd9653f200f220920489ca2b5937696c3183604051610a7a91906118ed565b60405180910390a35050565b600073ffffffffffffffffffffffffffffffffffffffff168273ffffffffffffffffffffffffffffffffffffffff1603610abf57600080fd5b3073ffffffffffffffffffffffffffffffffffffffff168273ffffffffffffffffffffffffffffffffffffffff1603610af757600080fd5b610b02338383610fff565b5050565b603281565b610b17338585856111c6565b610b2057600080fd5b610b2c8484848461127f565b50505050565b60008060009054906101000a900473ffffffffffffffffffffffffffffffffffffffff1673ffffffffffffffffffffffffffffffffffffffff163373ffffffffffffffffffffffffffffffffffffffff1614610bc3576040517f08c379a0000000000000000000000000000000000000000000000000000000008152600401610bba90611c4b565b60405180910390fd5b603260065410610c08576040517f08c379a0000000000000000000000000000000000000000000000000000000008152600401610bff90611cb7565b60405180910390fd5b60066000815480929190610c1b90611d06565b9190505550610c2f600080600085336112a5565b9050919050565b6000610c423384610ed1565b610c81576040517f08c379a0000000000000000000000000000000000000000000000000000000008152600401610c7890611d9a565b60405180910390fd5b610c8b3383610ed1565b610cca576040517f08c379a0000000000000000000000000000000000000000000000000000000008152600401610cc190611d9a565b60405180910390fd5b600080610cd685610e15565b94505050509150600080610ce987610e15565b945050505091506000610cfc858461142e565b9050600082851015610d2b57600183610d159190611dba565b9050600281610d249190611e3f565b9050610d67565b82851115610d5657600185610d409190611dba565b9050600281610d4f9190611e3f565b9050610d66565b600183610d639190611dba565b90505b5b610d74888a8385336112a5565b5050505050505092915050565b6000600560008473ffffffffffffffffffffffffffffffffffffffff1673ffffffffffffffffffffffffffffffffffffffff16815260200190815260200160002060008373ffffffffffffffffffffffffffffffffffffffff1673ffffffffffffffffffffffffffffffffffffffff16815260200190815260200160002060009054906101000a900460ff16905092915050565b60008060008060008060018781548110610e3257610e31611e70565b5b906000526020600020906002020190508060010160009054906101000a900467ffffffffffffffff1667ffffffffffffffff1694508060010160089054906101000a900463ffffffff1663ffffffff16935080600101600c9054906101000a900463ffffffff1663ffffffff1692508060010160109054906101000a900461ffff1661ffff169150806000015495505091939590929450565b60065481565b60008273ffffffffffffffffffffffffffffffffffffffff166003600084815260200190815260200160002060009054906101000a900473ffffffffffffffffffffffffffffffffffffffff1673ffffffffffffffffffffffffffffffffffffffff1614905092915050565b806004600084815260200190815260200160002060006101000a81548173ffffffffffffffffffffffffffffffffffffffff021916908373ffffffffffffffffffffffffffffffffffffffff1602179055505050565b60008273ffffffffffffffffffffffffffffffffffffffff166004600084815260200190815260200160002060009054906101000a900473ffffffffffffffffffffffffffffffffffffffff1673ffffffffffffffffffffffffffffffffffffffff1614905092915050565b600260008373ffffffffffffffffffffffffffffffffffffffff1673ffffffffffffffffffffffffffffffffffffffff168152602001908152602001600020600081548092919061104f90611d06565b9190505550816003600083815260200190815260200160002060006101000a81548173ffffffffffffffffffffffffffffffffffffffff021916908373ffffffffffffffffffffffffffffffffffffffff160217905550600073ffffffffffffffffffffffffffffffffffffffff168373ffffffffffffffffffffffffffffffffffffffff161461116657600260008473ffffffffffffffffffffffffffffffffffffffff1673ffffffffffffffffffffffffffffffffffffffff168152602001908152602001600020600081548092919061112a90611e9f565b91905055506004600082815260200190815260200160002060006101000a81549073ffffffffffffffffffffffffffffffffffffffff02191690555b808273ffffffffffffffffffffffffffffffffffffffff168473ffffffffffffffffffffffffffffffffffffffff167fddf252ad1be2c89b69c2b068fc378daa952ba7f163c4a11628f55a4df523b3ef60405160405180910390a4505050565b60008073ffffffffffffffffffffffffffffffffffffffff168373ffffffffffffffffffffffffffffffffffffffff160361120057600080fd5b61120a8483610ed1565b61121357600080fd5b600180549050821061122457600080fd5b8373ffffffffffffffffffffffffffffffffffffffff168573ffffffffffffffffffffffffffffffffffffffff16148061126457506112638583610f93565b5b8061127557506112748486610d81565b5b9050949350505050565b61128a848484610fff565b61129684848484611485565b61129f57600080fd5b50505050565b6000806040518060a001604052808581526020014267ffffffffffffffff1681526020018863ffffffff1681526020018763ffffffff1681526020018661ffff16815250905060018190806001815401808255809150506001900390600052602060002090600202016000909190919091506000820151816000015560208201518160010160006101000a81548167ffffffffffffffff021916908367ffffffffffffffff16021790555060408201518160010160086101000a81548163ffffffff021916908363ffffffff160217905550606082015181600101600c6101000a81548163ffffffff021916908363ffffffff16021790555060808201518160010160106101000a81548161ffff021916908361ffff16021790555050506000600180805490506113d69190611ec8565b90507f0a5311bd2a6608f08a180df2ee7c5946819a649b204b554bb8e39825b2c50ad584828a8a8960405161140f959493929190611efc565b60405180910390a161142360008583610fff565b505095945050505050565b6000806305f5e100846114419190611e3f565b905060006305f5e100846114559190611f4f565b905060006305f5e100836114699190611f80565b905081816114779190611dba565b905080935050505092915050565b600061149084611590565b61149d5760019050611588565b60008473ffffffffffffffffffffffffffffffffffffffff1663150b7a02338887876040518563ffffffff1660e01b81526004016114de949392919061202f565b6020604051808303816000875af11580156114fd573d6000803e3d6000fd5b505050506040513d601f19601f820116820180604052508101906115219190612090565b90507facb7d9e3059f17bdabc47ad03f0278ec3c162128a4c73cef5bc7ea8fcd3af9a67bffffffffffffffffffffffffffffffffffffffffffffffffffffffff1916817bffffffffffffffffffffffffffffffffffffffffffffffffffffffff1916149150505b949350505050565b600080823b905060008163ffffffff1611915050919050565b600081519050919050565b600082825260208201905092915050565b60005b838110156115e35780820151818401526020810190506115c8565b838111156115f2576000848401525b50505050565b6000601f19601f8301169050919050565b6000611614826115a9565b61161e81856115b4565b935061162e8185602086016115c5565b611637816115f8565b840191505092915050565b6000602082019050818103600083015261165c8184611609565b905092915050565b6000604051905090565b600080fd5b600080fd5b6000819050919050565b61168b81611678565b811461169657600080fd5b50565b6000813590506116a881611682565b92915050565b6000602082840312156116c4576116c361166e565b5b60006116d284828501611699565b91505092915050565b600073ffffffffffffffffffffffffffffffffffffffff82169050919050565b6000611706826116db565b9050919050565b611716816116fb565b82525050565b6000602082019050611731600083018461170d565b92915050565b611740816116fb565b811461174b57600080fd5b50565b60008135905061175d81611737565b92915050565b6000806040838503121561177a5761177961166e565b5b60006117888582860161174e565b925050602061179985828601611699565b9150509250929050565b6117ac81611678565b82525050565b60006020820190506117c760008301846117a3565b92915050565b6000806000606084860312156117e6576117e561166e565b5b60006117f48682870161174e565b93505060206118058682870161174e565b925050604061181686828701611699565b9150509250925092565b6000602082840312156118365761183561166e565b5b60006118448482850161174e565b91505092915050565b60007fffffffff0000000000000000000000000000000000000000000000000000000082169050919050565b6118828161184d565b811461188d57600080fd5b50565b60008135905061189f81611879565b92915050565b6000602082840312156118bb576118ba61166e565b5b60006118c984828501611890565b91505092915050565b60008115159050919050565b6118e7816118d2565b82525050565b600060208201905061190260008301846118de565b92915050565b611911816118d2565b811461191c57600080fd5b50565b60008135905061192e81611908565b92915050565b6000806040838503121561194b5761194a61166e565b5b60006119598582860161174e565b925050602061196a8582860161191f565b9150509250929050565b600080fd5b600080fd5b7f4e487b7100000000000000000000000000000000000000000000000000000000600052604160045260246000fd5b6119b6826115f8565b810181811067ffffffffffffffff821117156119d5576119d461197e565b5b80604052505050565b60006119e8611664565b90506119f482826119ad565b919050565b600067ffffffffffffffff821115611a1457611a1361197e565b5b611a1d826115f8565b9050602081019050919050565b82818337600083830152505050565b6000611a4c611a47846119f9565b6119de565b905082815260208101848484011115611a6857611a67611979565b5b611a73848285611a2a565b509392505050565b600082601f830112611a9057611a8f611974565b5b8135611aa0848260208601611a39565b91505092915050565b60008060008060808587031215611ac357611ac261166e565b5b6000611ad18782880161174e565b9450506020611ae28782880161174e565b9350506040611af387828801611699565b925050606085013567ffffffffffffffff811115611b1457611b13611673565b5b611b2087828801611a7b565b91505092959194509250565b60008060408385031215611b4357611b4261166e565b5b6000611b5185828601611699565b9250506020611b6285828601611699565b9150509250929050565b60008060408385031215611b8357611b8261166e565b5b6000611b918582860161174e565b9250506020611ba28582860161174e565b9150509250929050565b600060a082019050611bc160008301886117a3565b611bce60208301876117a3565b611bdb60408301866117a3565b611be860608301856117a3565b611bf560808301846117a3565b9695505050505050565b7f43616c6c6572206973206e6f74206f776e657200000000000000000000000000600082015250565b6000611c356013836115b4565b9150611c4082611bff565b602082019050919050565b60006020820190508181036000830152611c6481611c28565b9050919050565b7f6372656174696f6e206c696d6974207265616368656400000000000000000000600082015250565b6000611ca16016836115b4565b9150611cac82611c6b565b602082019050919050565b60006020820190508181036000830152611cd081611c94565b9050919050565b7f4e487b7100000000000000000000000000000000000000000000000000000000600052601160045260246000fd5b6000611d1182611678565b91507fffffffffffffffffffffffffffffffffffffffffffffffffffffffffffffffff8203611d4357611d42611cd7565b5b600182019050919050565b7f746865207573657220646f65736e74206f776e207468697320746f6b656e0000600082015250565b6000611d84601e836115b4565b9150611d8f82611d4e565b602082019050919050565b60006020820190508181036000830152611db381611d77565b9050919050565b6000611dc582611678565b9150611dd083611678565b9250827fffffffffffffffffffffffffffffffffffffffffffffffffffffffffffffffff03821115611e0557611e04611cd7565b5b828201905092915050565b7f4e487b7100000000000000000000000000000000000000000000000000000000600052601260045260246000fd5b6000611e4a82611678565b9150611e5583611678565b925082611e6557611e64611e10565b5b828204905092915050565b7f4e487b7100000000000000000000000000000000000000000000000000000000600052603260045260246000fd5b6000611eaa82611678565b915060008203611ebd57611ebc611cd7565b5b600182039050919050565b6000611ed382611678565b9150611ede83611678565b925082821015611ef157611ef0611cd7565b5b828203905092915050565b600060a082019050611f11600083018861170d565b611f1e60208301876117a3565b611f2b60408301866117a3565b611f3860608301856117a3565b611f4560808301846117a3565b9695505050505050565b6000611f5a82611678565b9150611f6583611678565b925082611f7557611f74611e10565b5b828206905092915050565b6000611f8b82611678565b9150611f9683611678565b9250817fffffffffffffffffffffffffffffffffffffffffffffffffffffffffffffffff0483118215151615611fcf57611fce611cd7565b5b828202905092915050565b600081519050919050565b600082825260208201905092915050565b600061200182611fda565b61200b8185611fe5565b935061201b8185602086016115c5565b612024816115f8565b840191505092915050565b6000608082019050612044600083018761170d565b612051602083018661170d565b61205e60408301856117a3565b81810360608301526120708184611ff6565b905095945050505050565b60008151905061208a81611879565b92915050565b6000602082840312156120a6576120a561166e565b5b60006120b48482850161207b565b9150509291505056fea2646970667358221220027f0d2be8a89b266652337c83e5e5a32686bf00fb88b40e5354e1b09965f58164736f6c634300080d0033",
  "immutableReferences": {},
  "source": "pragma solidity ^0.8.10;\n\nimport \"./IERC721.sol\";\nimport \"./IERC721Receiver.sol\";\nimport \"./Ownable.sol\";\n\ncontract kittyContract is IERC721, Ownable{\n   uint256 public constant CREATION_LIMIT_GEN0 = 50;\n   string public constant tokenSymbol = \"CK\";\n   string public constant tokenName = \"CodedKitties\";\n\n   bytes4 internal constant MAGIC_ERC721_RECEIVED = bytes4(keccak256(\"onERC721Received(address, address, uint256, bytes)\"));\n  \n        bytes4 private constant _INTERFACE_ID_ERC721 = 0x80ac58cd;\n\n        bytes4 private constant _INTERFACE_ID_ERC165 = 0x01ffc9a7;\n\n  event Birth(address owner, uint256 kittenId, uint256 mumId, uint256 dadId, uint256 genes);\n   struct Kitty{\n        uint256 genes;\n        uint64 birthTime;\n        uint32 mumId;\n        uint32 dadId;\n        uint16 generation;\n    }\n        \n    Kitty[] kitties;\n\n        mapping(address => uint256) ownershipTokenCount;\n        mapping(uint256 => address) public kittyTokenOwner;\n        mapping(uint256 => address) public kittyIndexToApproved;\n        // MYADDR => OPERATORADDR =>TRUE/FALSE     \n        mapping(address => mapping(address => bool)) private _operatorApprovals;\n\n        uint256 public gen0Counter;\n\n\n        function breed(uint256 _dadId, uint256 _mumId) public returns(uint256){\n            // check ownership\n            require(_owns(msg.sender, _dadId), \"the user doesnt own this token\");\n             require(_owns(msg.sender, _mumId), \"the user doesnt own this token\");\n            // you get the dna\n            (uint256 dadDna,,,,uint256 DadGeneration) = getKitty(_dadId);\n             (uint256 mumDna,,,,uint256 MumGeneration) = getKitty(_dadId);\n              uint256 newDna = _mixDna(dadDna, mumDna);\n\n            // figure out the generation\n            uint256 kidGen = 0;\n            if(DadGeneration < MumGeneration){\n                kidGen = MumGeneration + 1;\n                kidGen /= 2;\n            }else if (DadGeneration > MumGeneration){\n                  kidGen = DadGeneration + 1;\n                kidGen /= 2;\n            }else{\n                kidGen = MumGeneration + 1;  \n            }\n            // create a new cat with the new properties, give it to the msg.sender\n            _createKitty(_mumId, _dadId, kidGen, newDna, msg.sender);\n              \n        }\n\n        function supportInterface(bytes4 _interfaceId) external view returns(bool){\n            return(_interfaceId == _INTERFACE_ID_ERC721 || _interfaceId == _INTERFACE_ID_ERC165);\n        }\n\n         function safeTransferFrom(address _from, address _to, uint256 _tokenId) public{\n             safeTransferFrom(_from, _to, _tokenId, \"\");\n        }\n\n        function safeTransferFrom(address _from, address _to, uint256 _tokenId, bytes memory _data) public{\n           \n           require(_isApprovedOwner(msg.sender, _from, _to, _tokenId));\n            _safeTransfer(_from, _to, _tokenId, _data);\n        }\n\n       \n\n\n\n        function _safeTransfer(address _from, address _to, uint256 _tokenId, bytes memory _data) internal{\n            _transfer(_from, _to, _tokenId);\n            require(_checkERC721Support(_from, _to, _tokenId, _data));\n        }\n\n         function approve(address _to, uint256 _tokenId) external{\n             require(_owns(msg.sender, _tokenId));\n\n             _approve(_tokenId, _to);\n\n             emit Approval(msg.sender, _to, _tokenId);\n         }\n\n          function setApprovalForAll(address _operator, bool _approved) external{\n              require(_operator != msg.sender);\n\n              _operatorApprovals[msg.sender][_operator] = _approved;\n              emit ApprovalForAll(msg.sender, _operator, _approved);\n          }\n\n         // a function for geting the approved status for a token\n          function getApproved(uint256 _tokenId) external view returns (address){\n              require(_tokenId < kitties.length); // token must exist;\n\n              return kittyIndexToApproved[_tokenId];\n          }\n\n          function isApprovedForAll(address _owner, address _operator)public view returns (bool){\n              return _operatorApprovals[_owner][_operator];\n          }\n\n         function transferFrom(address _from, address _to, uint256 _tokenId) external{\n            require(_to != address(0));\n            require(msg.sender == _from || _approvedFor(msg.sender, _tokenId) || isApprovedForAll(_from, msg.sender));\n            require(_owns(_from, _tokenId));\n            \n            require(_tokenId < kitties.length);\n             \n             _transfer(_from, _to, _tokenId);\n         }\n\n\n        function getKitty(uint256 _id) public view returns(uint256 genes, uint256 birthTime, uint256 mumId, uint256 dadId, uint256 generation){\n            Kitty storage kitty = kitties[_id];\n\n            birthTime = uint256(kitty.birthTime);\n            mumId = uint256(kitty.mumId);\n            dadId = uint256(kitty.dadId);\n            generation = uint256(kitty.generation);\n            genes = kitty.genes;\n        }\n\n\n        function createKittyGen0(uint256 _genes) public isOwner returns(uint256){\n            require(gen0Counter < CREATION_LIMIT_GEN0, \"creation limit reached\");\n\n            gen0Counter++;\n\n            // Gen0 have no owners they are own by the contract\n            return _createKitty(0, 0, 0, _genes, msg.sender);\n        }\n\n    function _createKitty(uint _mumId, uint256 _dadId, uint256 _generation, uint256 _genes, address _owner)private returns(uint256) {\n        Kitty memory _kitty = Kitty({\n            genes: _genes,\n            birthTime: uint64(block.timestamp),\n            mumId: uint32(_mumId),\n            dadId: uint32(_dadId),\n            generation: uint16(_generation)\n        });\n\n        \n        // uint256 newKittenId = kitties.push(_kitty) -1;\n        \n        kitties.push(_kitty);\n\n        uint256 newKittenId = kitties.length -1;\n\n\n        emit Birth(_owner, newKittenId, _mumId , _dadId, _genes);\n\n        _transfer(address(0), _owner, newKittenId);\n    }  \n\n    function balanceOf(address owner) external view returns (uint256){\n            return ownershipTokenCount[owner];\n    }\n\n    function totalSupply() external view returns (uint256){\n        return kitties.length;\n    }\n\n     function name() external pure returns (string memory){\n         return tokenName;\n     }\n\n     function symbol() external pure returns (string memory ){\n         return tokenSymbol;\n     }\n\n     function ownerOf(uint256 tokenId) external view returns (address ){\n          require(kittyTokenOwner[tokenId] != address(0));\n           return kittyTokenOwner[tokenId];\n   }\n\n   function transfer(address to, uint256 tokenId) external{\n\n       require(to != address(0));\n       require(to != address(this));\n    \n    _transfer(msg.sender, to, tokenId);\n   }\n\n   function _transfer(address _from, address _to, uint256 _tokenId) internal{\n       ownershipTokenCount[_to]++;\n\n       kittyTokenOwner[_tokenId] = _to;\n\n       if(_from != address(0)) {\n           ownershipTokenCount[_from]--;\n           delete kittyIndexToApproved[_tokenId];\n       }\n\n    //    emit transfer event\n\n    emit Transfer(_from, _to, _tokenId);  \n\n   }\n\n    function _owns(address _claimant, uint256 _tokenId) internal view returns(bool){\n            return kittyTokenOwner[_tokenId] == _claimant;\n     }\n\n\n        function _approve(uint256 _tokenId, address _approved) internal{\n            kittyIndexToApproved[_tokenId] = _approved;\n        }\n\n        function _approvedFor(address _claimant, uint256 _tokenId)internal view returns(bool){\n            return kittyIndexToApproved[_tokenId] == _claimant;\n        }\n        function _checkERC721Support(address _from, address _to, uint256 _tokenId, bytes memory _data) internal returns(bool){\n            if(!_isContract(_to)){\n                return true;\n            }\n             // Call onErC721Recieved in the _to contract\n            bytes4 returnData = IERC721Receiver(_to).onERC721Received(msg.sender, _from, _tokenId, _data);\n            return returnData == MAGIC_ERC721_RECEIVED;\n\n            // Check return value\n        }\n\n        function _isContract(address _to) view internal returns(bool){\n            uint32 size;\n            assembly{\n                size := extcodesize(_to)\n            }\n            return size > 0;\n        }\n\n        function _isApprovedOwner(address _spender, address _from, address _to, uint256 _tokenId)internal view returns(bool){\n            require(_to != address(0));\n            require(_owns(_from, _tokenId));\n            require(_tokenId < kitties.length);\n            return(_spender == _from || _approvedFor(_spender, _tokenId) || isApprovedForAll(_from, _spender));\n          \n\n        }\n\n        function _mixDna(uint256 _dadDna, uint256 _mumDna) internal returns(uint256){\n            //dad: 11 22 33 44 55 66 77 88\n            //mum: 88 77 66 55 44 3 22 11\n\n            uint256 firstHalf = _dadDna / 100000000;\n            uint256 secondHalf = _mumDna % 100000000;\n\n            uint256 newDna = firstHalf * 100000000 ;\n            newDna = newDna + secondHalf;\n            return newDna;\n        }\n\n}\n\n",
  "sourcePath": "/Users/talk2coded/Documents/kitties_project/academy-kitties-template/contracts/kittyContract.sol",
  "compiler": {
    "name": "solc",
    "version": "0.8.13+commit.abaa5c0e.Emscripten.clang"
  },
  "schemaVersion": "3.4.4",
  "updatedAt": "2022-05-14T13:43:37.423Z",
  "networkType": "ethereum",
  "devdoc": {
    "kind": "dev",
    "methods": {
      "balanceOf(address)": {
        "details": "Returns the number of tokens in ``owner``'s account."
      },
      "getApproved(uint256)": {
        "details": "Throws if `_tokenId` is not a valid NFT.",
        "params": {
          "_tokenId": "The NFT to find the approved address for"
        },
        "returns": {
          "_0": "The approved address for this NFT, or the zero address if there is none"
        }
      },
      "isApprovedForAll(address,address)": {
        "params": {
          "_operator": "The address that acts on behalf of the owner",
          "_owner": "The address that owns the NFTs"
        },
        "returns": {
          "_0": "True if `_operator` is an approved operator for `_owner`, false otherwise"
        }
      },
      "ownerOf(uint256)": {
        "details": "Returns the owner of the `tokenId` token. Requirements: - `tokenId` must exist."
      },
      "safeTransferFrom(address,address,uint256)": {
        "details": "This works identically to the other function with an extra data parameter,  except this function just sets data to \"\".",
        "params": {
          "_from": "The current owner of the NFT",
          "_to": "The new owner",
          "_tokenId": "The NFT to transfer"
        }
      },
      "setApprovalForAll(address,bool)": {
        "details": "Emits the ApprovalForAll event. The contract MUST allow  multiple operators per owner.",
        "params": {
          "_approved": "True if the operator is approved, false to revoke approval",
          "_operator": "Address to add to the set of authorized operators"
        }
      },
      "transferFrom(address,address,uint256)": {
        "details": "Throws unless `msg.sender` is the current owner, an authorized  operator, or the approved address for this NFT. Throws if `_from` is  not the current owner. Throws if `_to` is the zero address. Throws if  `_tokenId` is not a valid NFT.",
        "params": {
          "_from": "The current owner of the NFT",
          "_to": "The new owner",
          "_tokenId": "The NFT to transfer"
        }
      }
    },
    "version": 1
  },
  "userdoc": {
    "kind": "user",
    "methods": {
      "getApproved(uint256)": {
        "notice": "Get the approved address for a single NFT"
      },
      "isApprovedForAll(address,address)": {
        "notice": "Query if an address is an authorized operator for another address"
      },
      "safeTransferFrom(address,address,uint256)": {
        "notice": "Transfers the ownership of an NFT from one address to another address"
      },
      "setApprovalForAll(address,bool)": {
        "notice": "Enable or disable approval for a third party (\"operator\") to manage  all of `msg.sender`'s assets"
      },
      "transferFrom(address,address,uint256)": {
        "notice": "Transfer ownership of an NFT -- THE CALLER IS RESPONSIBLE  TO CONFIRM THAT `_to` IS CAPABLE OF RECEIVING NFTS OR ELSE  THEY MAY BE PERMANENTLY LOST"
      }
    },
    "version": 1
  }
}